{
  "contractName": "StoreRead",
  "abi": [
    {
      "constant": true,
      "inputs": [],
      "name": "organizer",
      "outputs": [
        {
          "name": "",
          "type": "address"
        }
      ],
      "payable": false,
      "stateMutability": "view",
      "type": "function",
      "signature": "0x61203265"
    },
    {
      "inputs": [],
      "payable": false,
      "stateMutability": "nonpayable",
      "type": "constructor",
      "signature": "constructor"
    },
    {
      "constant": false,
      "inputs": [
        {
          "name": "newEvent",
          "type": "bytes32"
        }
      ],
      "name": "saveList",
      "outputs": [],
      "payable": false,
      "stateMutability": "nonpayable",
      "type": "function",
      "signature": "0xe648ba32"
    },
    {
      "constant": true,
      "inputs": [],
      "name": "readListLength",
      "outputs": [
        {
          "name": "length_",
          "type": "uint32"
        }
      ],
      "payable": false,
      "stateMutability": "view",
      "type": "function",
      "signature": "0xd0a80818"
    },
    {
      "constant": true,
      "inputs": [
        {
          "name": "index",
          "type": "uint32"
        }
      ],
      "name": "readListByIndex",
      "outputs": [
        {
          "name": "event_",
          "type": "bytes32"
        }
      ],
      "payable": false,
      "stateMutability": "view",
      "type": "function",
      "signature": "0xaa1a7122"
    },
    {
      "constant": false,
      "inputs": [
        {
          "name": "paramUint32",
          "type": "uint32"
        },
        {
          "name": "paramBytes",
          "type": "bytes"
        },
        {
          "name": "paramString",
          "type": "string"
        }
      ],
      "name": "func1",
      "outputs": [],
      "payable": false,
      "stateMutability": "nonpayable",
      "type": "function",
      "signature": "0xb02bbbbf"
    },
    {
      "constant": false,
      "inputs": [
        {
          "name": "paramBytes",
          "type": "bytes"
        },
        {
          "name": "paramUint32",
          "type": "uint32"
        },
        {
          "name": "paramString",
          "type": "string"
        }
      ],
      "name": "func2",
      "outputs": [],
      "payable": false,
      "stateMutability": "nonpayable",
      "type": "function",
      "signature": "0x05f276d0"
    },
    {
      "constant": false,
      "inputs": [
        {
          "name": "paramBytes",
          "type": "bytes"
        },
        {
          "name": "paramString",
          "type": "string"
        },
        {
          "name": "paramUint32",
          "type": "uint32"
        }
      ],
      "name": "func3",
      "outputs": [],
      "payable": false,
      "stateMutability": "nonpayable",
      "type": "function",
      "signature": "0xa0b168a8"
    },
    {
      "constant": false,
      "inputs": [],
      "name": "destroy",
      "outputs": [],
      "payable": false,
      "stateMutability": "nonpayable",
      "type": "function",
      "signature": "0x83197ef0"
    }
  ],
  "bytecode": "0x608060405234801561001057600080fd5b50336000806101000a81548173ffffffffffffffffffffffffffffffffffffffff021916908373ffffffffffffffffffffffffffffffffffffffff160217905550610a21806100606000396000f3fe60806040526004361061008e576000357c0100000000000000000000000000000000000000000000000000000000900463ffffffff16806305f276d014610093578063612032651461020257806383197ef014610259578063a0b168a814610270578063aa1a7122146103df578063b02bbbbf14610434578063d0a80818146105a3578063e648ba32146105da575b600080fd5b34801561009f57600080fd5b50610200600480360360608110156100b657600080fd5b81019080803590602001906401000000008111156100d357600080fd5b8201836020820111156100e557600080fd5b8035906020019184600183028401116401000000008311171561010757600080fd5b91908080601f016020809104026020016040519081016040528093929190818152602001838380828437600081840152601f19601f820116905080830192505050505050509192919290803563ffffffff1690602001909291908035906020019064010000000081111561017a57600080fd5b82018360208201111561018c57600080fd5b803590602001918460018302840111640100000000831117156101ae57600080fd5b91908080601f016020809104026020016040519081016040528093929190818152602001838380828437600081840152601f19601f820116905080830192505050505050509192919290505050610615565b005b34801561020e57600080fd5b50610217610699565b604051808273ffffffffffffffffffffffffffffffffffffffff1673ffffffffffffffffffffffffffffffffffffffff16815260200191505060405180910390f35b34801561026557600080fd5b5061026e6106be565b005b34801561027c57600080fd5b506103dd6004803603606081101561029357600080fd5b81019080803590602001906401000000008111156102b057600080fd5b8201836020820111156102c257600080fd5b803590602001918460018302840111640100000000831117156102e457600080fd5b91908080601f016020809104026020016040519081016040528093929190818152602001838380828437600081840152601f19601f8201169050808301925050505050505091929192908035906020019064010000000081111561034757600080fd5b82018360208201111561035957600080fd5b8035906020019184600183028401116401000000008311171561037b57600080fd5b91908080601f016020809104026020016040519081016040528093929190818152602001838380828437600081840152601f19601f820116905080830192505050505050509192919290803563ffffffff16906020019092919050505061074f565b005b3480156103eb57600080fd5b5061041e6004803603602081101561040257600080fd5b81019080803563ffffffff1690602001909291905050506107d3565b6040518082815260200191505060405180910390f35b34801561044057600080fd5b506105a16004803603606081101561045757600080fd5b81019080803563ffffffff1690602001909291908035906020019064010000000081111561048457600080fd5b82018360208201111561049657600080fd5b803590602001918460018302840111640100000000831117156104b857600080fd5b91908080601f016020809104026020016040519081016040528093929190818152602001838380828437600081840152601f19601f8201169050808301925050505050505091929192908035906020019064010000000081111561051b57600080fd5b82018360208201111561052d57600080fd5b8035906020019184600183028401116401000000008311171561054f57600080fd5b91908080601f016020809104026020016040519081016040528093929190818152602001838380828437600081840152601f19601f820116905080830192505050505050509192919290505050610810565b005b3480156105af57600080fd5b506105b8610894565b604051808263ffffffff1663ffffffff16815260200191505060405180910390f35b3480156105e657600080fd5b50610613600480360360208110156105fd57600080fd5b81019080803590602001909291905050506108a1565b005b806003908051906020019061062b9291906108d0565b508260049080519060200190610642929190610950565b50600282908060018154018082558091505090600182039060005260206000209060089182820401919006600402909192909190916101000a81548163ffffffff021916908363ffffffff16021790555050505050565b6000809054906101000a900473ffffffffffffffffffffffffffffffffffffffff1681565b6000809054906101000a900473ffffffffffffffffffffffffffffffffffffffff1673ffffffffffffffffffffffffffffffffffffffff163373ffffffffffffffffffffffffffffffffffffffff16141561074d576000809054906101000a900473ffffffffffffffffffffffffffffffffffffffff1673ffffffffffffffffffffffffffffffffffffffff16ff5b565b81600390805190602001906107659291906108d0565b50826004908051906020019061077c929190610950565b50600281908060018154018082558091505090600182039060005260206000209060089182820401919006600402909192909190916101000a81548163ffffffff021916908363ffffffff16021790555050505050565b60008163ffffffff16600180549050111561080b5760018263ffffffff168154811015156107fd57fe5b906000526020600020015490505b919050565b80600390805190602001906108269291906108d0565b50816004908051906020019061083d929190610950565b50600283908060018154018082558091505090600182039060005260206000209060089182820401919006600402909192909190916101000a81548163ffffffff021916908363ffffffff16021790555050505050565b6000600180549050905090565b600181908060018154018082558091505090600182039060005260206000200160009091929091909150555050565b828054600181600116156101000203166002900490600052602060002090601f016020900481019282601f1061091157805160ff191683800117855561093f565b8280016001018555821561093f579182015b8281111561093e578251825591602001919060010190610923565b5b50905061094c91906109d0565b5090565b828054600181600116156101000203166002900490600052602060002090601f016020900481019282601f1061099157805160ff19168380011785556109bf565b828001600101855582156109bf579182015b828111156109be5782518255916020019190600101906109a3565b5b5090506109cc91906109d0565b5090565b6109f291905b808211156109ee5760008160009055506001016109d6565b5090565b9056fea165627a7a72305820ed2aeec97129af5bc25574b0d73f9727f1349db8a670655c9e234a553dc514920029",
  "source": "pragma solidity >=0.4.16 <0.6.0;\n\ncontract StoreRead {\n    // Uncomment one of following 2 lines according to truffle version\n    // address public organizer;\n    address payable public organizer;\n\n    bytes32[] eventList;\n    uint32[] uint32List;\n    string  stringLocal;\n    bytes  bytesLocal;\n\n\n    constructor () public {\n        organizer = msg.sender;\n    }\n\n    function saveList(bytes32 newEvent) public {\n        eventList.push(newEvent);\n    }\n\n    function readListLength() public view returns (uint32 length_) {\n        length_ = uint32(eventList.length);\n    }\n\n    function readListByIndex(uint32 index) public view returns (bytes32 event_) {\n        if(eventList.length > index) {\n            event_ = eventList[index];\n        }\n    }\n\n    //!follow function used for variable-length contract-ABI test\n    function func1( uint32 paramUint32, bytes memory paramBytes, string memory paramString) public{\n        stringLocal = paramString;\n        bytesLocal  = paramBytes;\n        uint32List.push(paramUint32);\n    }\n\n    function func2(bytes memory paramBytes,  uint32 paramUint32, string memory paramString) public{\n        stringLocal = paramString;\n        bytesLocal  = paramBytes;\n        uint32List.push(paramUint32);\n    }\n\n    function func3(bytes memory paramBytes, string memory paramString, uint32 paramUint32) public{\n        stringLocal = paramString;\n        bytesLocal  = paramBytes;\n        uint32List.push(paramUint32);\n    }\n\n    /*\n    function func1(bytes, string, uint32[]) public{\n\n    } */\n    //!function used for variable-length contract-ABI test done\n\n\n    function destroy() public {\n        if (msg.sender == organizer) {\n            selfdestruct(organizer);\n        }\n    }\n}\n",
  "sourcePath": "C:/Users/junliang/aitostest/contracts/StoreRead.sol",
  "compiler": {
    "name": "solc",
    "version": "0.5.0+commit.1d4f565a.Emscripten.clang"
  },
  "schemaVersion": "3.0.2",
  "updatedAt": "2020-06-24T01:32:24.612Z",
  "devdoc": {
    "methods": {}
  },
  "userdoc": {
    "methods": {}
  }
}