{
  "contractName": "StoreRead",
  "abi": [
    {
      "constant": true,
      "inputs": [],
      "name": "organizer",
      "outputs": [
        {
          "name": "",
          "type": "address"
        }
      ],
      "payable": false,
      "stateMutability": "view",
      "type": "function"
    },
    {
      "inputs": [],
      "payable": false,
      "stateMutability": "nonpayable",
      "type": "constructor"
    },
    {
      "constant": false,
      "inputs": [
        {
          "name": "newEvent",
          "type": "bytes32"
        }
      ],
      "name": "saveList",
      "outputs": [],
      "payable": false,
      "stateMutability": "nonpayable",
      "type": "function"
    },
    {
      "constant": true,
      "inputs": [],
      "name": "readListLength",
      "outputs": [
        {
          "name": "length_",
          "type": "uint32"
        }
      ],
      "payable": false,
      "stateMutability": "view",
      "type": "function"
    },
    {
      "constant": true,
      "inputs": [
        {
          "name": "index",
          "type": "uint32"
        }
      ],
      "name": "readListByIndex",
      "outputs": [
        {
          "name": "event_",
          "type": "bytes32"
        }
      ],
      "payable": false,
      "stateMutability": "view",
      "type": "function"
    },
    {
      "constant": false,
      "inputs": [],
      "name": "destroy",
      "outputs": [],
      "payable": false,
      "stateMutability": "nonpayable",
      "type": "function"
    }
  ],
  "bytecode": "0x608060405234801561001057600080fd5b50336000806101000a81548173ffffffffffffffffffffffffffffffffffffffff021916908373ffffffffffffffffffffffffffffffffffffffff1602179055506102f8806100606000396000f30060806040526004361061006d576000357c0100000000000000000000000000000000000000000000000000000000900463ffffffff168063612032651461007257806383197ef0146100c9578063aa1a7122146100e0578063d0a808181461012f578063e648ba3214610166575b600080fd5b34801561007e57600080fd5b50610087610197565b604051808273ffffffffffffffffffffffffffffffffffffffff1673ffffffffffffffffffffffffffffffffffffffff16815260200191505060405180910390f35b3480156100d557600080fd5b506100de6101bc565b005b3480156100ec57600080fd5b50610111600480360381019080803563ffffffff16906020019092919050505061024d565b60405180826000191660001916815260200191505060405180910390f35b34801561013b57600080fd5b5061014461028a565b604051808263ffffffff1663ffffffff16815260200191505060405180910390f35b34801561017257600080fd5b506101956004803603810190808035600019169060200190929190505050610297565b005b6000809054906101000a900473ffffffffffffffffffffffffffffffffffffffff1681565b6000809054906101000a900473ffffffffffffffffffffffffffffffffffffffff1673ffffffffffffffffffffffffffffffffffffffff163373ffffffffffffffffffffffffffffffffffffffff16141561024b576000809054906101000a900473ffffffffffffffffffffffffffffffffffffffff1673ffffffffffffffffffffffffffffffffffffffff16ff5b565b60008163ffffffff1660018054905011156102855760018263ffffffff1681548110151561027757fe5b906000526020600020015490505b919050565b6000600180549050905090565b6001819080600181540180825580915050906001820390600052602060002001600090919290919091509060001916905550505600a165627a7a723058204f8bd927b1d97c2c8ba43e339a510d425ee89f03bd8ffb47c01b4fa7311f72be0029",
  "source": "pragma solidity >=0.4.16 <0.6.0;\n\ncontract StoreRead {\n    // Uncomment one of following 2 lines according to truffle version\n    address public organizer;\n    // address payable public organizer;\n\n    bytes32[] eventList;\n\n    constructor () public {\n        organizer = msg.sender;\n    }\n    \n    function saveList(bytes32 newEvent) public {\n        eventList.push(newEvent);\n    }\n    \n    function readListLength() public view returns (uint32 length_) {\n        length_ = uint32(eventList.length);\n    }\n\n    function readListByIndex(uint32 index) public view returns (bytes32 event_) { \n        if(eventList.length > index) {\n            event_ = eventList[index];\n        }\n    }\n\n\n    function destroy() public {\n        if (msg.sender == organizer) { \n            selfdestruct(organizer);\n        }\n    }\n}\n",
  "sourcePath": "/home/gary/Project/boat/boatwallet.contracts/StoreRead/contracts/StoreRead.sol",
  "compiler": {
    "name": "solc",
    "version": "0.4.24+commit.e67f0147.Emscripten.clang"
  },
  "schemaVersion": "2.0.1",
  "updatedAt": "2020-03-22T10:23:57.824Z"
}